{
  "_format": "hh-sol-artifact-1",
  "contractName": "BuyMeCoffee",
  "sourceName": "contracts/BuyMeCoffee.sol",
  "abi": [
    {
      "inputs": [],
      "stateMutability": "nonpayable",
      "type": "constructor"
    },
    {
      "anonymous": false,
      "inputs": [
        {
          "indexed": true,
          "internalType": "address",
          "name": "sender",
          "type": "address"
        },
        {
          "indexed": false,
          "internalType": "uint256",
          "name": "amount",
          "type": "uint256"
        },
        {
          "indexed": false,
          "internalType": "string",
          "name": "message",
          "type": "string"
        }
      ],
      "name": "Donation",
      "type": "event"
    },
    {
      "stateMutability": "payable",
      "type": "fallback"
    },
    {
      "inputs": [
        {
          "internalType": "string",
          "name": "_note",
          "type": "string"
        }
      ],
      "name": "donate",
      "outputs": [],
      "stateMutability": "payable",
      "type": "function"
    },
    {
      "inputs": [],
      "name": "getTotalDonation",
      "outputs": [
        {
          "internalType": "uint256",
          "name": "",
          "type": "uint256"
        }
      ],
      "stateMutability": "view",
      "type": "function"
    },
    {
      "stateMutability": "payable",
      "type": "receive"
    }
  ],
  "bytecode": "0x608060405234801561001057600080fd5b50336000806101000a81548173ffffffffffffffffffffffffffffffffffffffff021916908373ffffffffffffffffffffffffffffffffffffffff16021790555061053d806100606000396000f3fe60806040526004361061002d5760003560e01c806356e23eb11461003c578063b5aebc801461006757610037565b3661003757600080fd5b600080fd5b34801561004857600080fd5b50610051610083565b60405161005e91906102df565b60405180910390f35b610081600480360381019061007c9190610213565b61008d565b005b6000600154905090565b670de0b6b3a76400003410156100d8576040517f08c379a00000000000000000000000000000000000000000000000000000000081526004016100cf906102bf565b60405180910390fd5b34600160008282546100ea919061039c565b9250508190555060008054906101000a900473ffffffffffffffffffffffffffffffffffffffff1673ffffffffffffffffffffffffffffffffffffffff166108fc349081150290604051600060405180830381858888f19350505050158015610157573d6000803e3d6000fd5b503373ffffffffffffffffffffffffffffffffffffffff167f144b533d556be80bda7c5cb4a1717ed31d063cedea86db1cb5db0fd157bf5d4f34836040516101a09291906102fa565b60405180910390a250565b60006101be6101b98461034f565b61032a565b9050828152602081018484840111156101d657600080fd5b6101e18482856103fc565b509392505050565b600082601f8301126101fa57600080fd5b813561020a8482602086016101ab565b91505092915050565b60006020828403121561022557600080fd5b600082013567ffffffffffffffff81111561023f57600080fd5b61024b848285016101e9565b91505092915050565b600061025f82610380565b610269818561038b565b935061027981856020860161040b565b610282816104cd565b840191505092915050565b600061029a60188361038b565b91506102a5826104de565b602082019050919050565b6102b9816103f2565b82525050565b600060208201905081810360008301526102d88161028d565b9050919050565b60006020820190506102f460008301846102b0565b92915050565b600060408201905061030f60008301856102b0565b81810360208301526103218184610254565b90509392505050565b6000610334610345565b9050610340828261043e565b919050565b6000604051905090565b600067ffffffffffffffff82111561036a5761036961049e565b5b610373826104cd565b9050602081019050919050565b600081519050919050565b600082825260208201905092915050565b60006103a7826103f2565b91506103b2836103f2565b9250827fffffffffffffffffffffffffffffffffffffffffffffffffffffffffffffffff038211156103e7576103e661046f565b5b828201905092915050565b6000819050919050565b82818337600083830152505050565b60005b8381101561042957808201518184015260208101905061040e565b83811115610438576000848401525b50505050565b610447826104cd565b810181811067ffffffffffffffff821117156104665761046561049e565b5b80604052505050565b7f4e487b7100000000000000000000000000000000000000000000000000000000600052601160045260246000fd5b7f4e487b7100000000000000000000000000000000000000000000000000000000600052604160045260246000fd5b6000601f19601f8301169050919050565b7f4b696e646c7920646f6e6174652061742031204d41544943000000000000000060008201525056fea26469706673582212200a399635c6c5c388c945ed56ae8e2557abe3c742515042533da6d516dbbead4264736f6c63430008040033",
  "linkReferences": {},
  "deployedLinkReferences": {}
}